:100000000C949C020C94C4020C94C4020C94C40280
:100010000C94C4020C94C4020C94C4020C94C40248
:100020000C94C4020C94C4020C94C4020C94C40238
:100030000C94C4020C94C4020C94C4020C94C40228
:100040000C945B0D0C94C4020C94290D0C94030DBC
:100050000C94C4020C94C4020C94C4020C94C40208
:100060000C94C4020C94C402000000002400270079
:100070002A0000000000250028002B0000000000DE
:1000800023002600290004040404040404040202DA
:100090000202020203030303030301020408102007
:1000A0004080010204081020010204081020000012
:1000B0000008000201000003040700000000000027
:1000C00000002F686F6D652F776F6A74656B2F4125
:1000D000726475696E6F2F7265736375652F7265D3
:1000E000736375652E696E6F000A0A5265736574D5
:1000F0000A005265616400577269746500202062CD
:10010000696E3A20006865783A200050726F706F0F
:10011000736564204578742046757365202000500F
:10012000726F706F736564204869676820467573E5
:1001300065200050726F706F736564204C6F77207C
:10014000467573652020005365742050726F706F80
:1001500073656420556E6F20467573657300536533
:10016000742050726F706F73656420426C616E6BA7
:100170002033323820467573657300415474696EBC
:10018000792F48565350206D6F646500415474694F
:100190006E7932333133206D6F64650041544D45C3
:1001A0004741206D6F6465004275726E20636F6D0C
:1001B000706C657465004275726E696E6720667555
:1001C00073657300202062696E3A20006865783A92
:1001D000200052656164204578742046757365205F
:1001E0002000202062696E3A20006865783A20007D
:1001F0005265616420486967682046757365200010
:10020000202062696E3A20006865783A20005265C5
:100210006164204C6F7720467573652020000A4585
:100220006E746572206120636F6D6D616E643A005B
:100230005570706572206F72206C6F7765722063E5
:100240006173652069732061636365707461626CBA
:100250006500202020206F722062696E6172792013
:10026000696E2074686520666F726D2042494E3158
:100270003131313131313100202020206F72206442
:100280006563696D616C20696E2074686520666FB6
:10029000726D204E554D323535004E756D6265726A
:1002A00020666F726D61742061636365707465644C
:1002B0002069732068657820696E207468652066FF
:1002C0006F726D204646206F722030784646005788
:1002D00020777269746573207468652070726F701E
:1002E0006F73656420667573657320746F2074681E
:1002F0006520746172676574204156520052207205
:1003000065616473207468652063757272656E74CC
:100310002066757365732066726F6D207468652042
:10032000746172676574204156520042206F7220DA
:1003300055206368616E676573207468652070720C
:100340006F706F73656420667573657320746F20BA
:10035000426C616E6B206F7220556E6F004C2C20CA
:10036000482C206F72205820666F6C6C6F77656424
:100370002062792061206E756D626572206368610C
:100380006E676573207468652070726F706F736537
:1003900064206675736500332073656C6563742033
:1003A0006D6F646520415474696E7920382D7069D1
:1003B0006E202F204856535000322073656C6563C1
:1003C00074206D6F646520415474696E79323331E5
:1003D0003300312073656C656374206D6F64652034
:1003E00041546D6567615858382032382D70696EF8
:1003F000000A436F6D6D616E64733A00202062697C
:100400006E3A20006865783A200050726F706F7302
:10041000656420457874204675736520200020208F
:1004200062696E3A20006865783A200050726F70F9
:100430006F7365642048696768204675736520009E
:10044000202062696E3A20006865783A20000A50E0
:10045000726F706F736564204C6F7720467573659B
:1004600020200020202020202020202020202020AC
:100470002020202020202058203078464620202090
:1004800058203078464420202058203078464400B8
:10049000202020202020202020202020202020205C
:1004A0002020202048203078443920202048203047
:1004B00078444520202048203078444100202020E6
:1004C000202020202020202020202020202020202C
:1004D000204C20307836322020204C203078464680
:1004E0002020204C2030784646002020202020204C
:1004F00020202020626C616E6B2041546D65676125
:100500003332385020202020554E4F2020202020EC
:100510004475656D696C616E6F7665333238005471
:1005200079706963616C20667573652076616C759E
:1005300065733A00A50D8E1411241FBECFEFD8E0CD
:10054000DEBFCDBF22E0AEE7B1E001C01D92AD330A
:10055000B207E1F711E0A0E0B1E0E6EDF0E302C0A0
:1005600005900D92AE37B107D9F712E0CBE9D2E092
:1005700004C02197FE010E943816CA39D107C9F775
:100580000E94D70D0C945E180C940000E4E9F1E091
:10059000A089B18982E08C93A485B5851C92A6853B
:1005A000B78580E18C93108EA489B58986E08C9301
:1005B000A289B3898C9180618C93A289B3898C9133
:1005C00088608C93A289B3898C9180688C9302880F
:1005D000F389E02D80818F7D808308950895AF9207
:1005E000BF92CF92DF92EF92FF920F931F93CF9320
:1005F000DF936C017B018B01040F151FEB015E0182
:10060000AE18BF08C017D10759F06991D601ED9116
:10061000FC910190F081E02DC6010995892B79F7B5
:10062000C501DF91CF911F910F91FF90EF90DF9067
:10063000CF90BF90AF900895FC01538D448D252F2E
:1006400030E0842F90E0821B930B541710F0CF966C
:10065000089501970895FC01918D828D981761F09E
:10066000A28DAE0FBF2FB11D5D968C91928D9F5FB5
:100670009F73928F90E008958FEF9FEF0895FC0194
:10068000918D828D981731F0828DE80FF11D858D47
:1006900090E008958FEF9FEF0895FC01918D228DDA
:1006A000892F90E0805C9F4F821B91098F7399275F
:1006B000089584E991E00E944D0321E0892B09F41B
:1006C00020E0822F089580E090E0892B29F00E949D
:1006D000590381110C9400000895FC01A48DA80F0A
:1006E000B92FB11DA35ABF4F2C91848D90E0019674
:1006F0008F739927848FA689B7892C93A089B18994
:100700008C91837080648C93938D848D981306C034
:100710000288F389E02D80818F7D80830895EF9298
:10072000FF920F931F93CF93DF93EC0181E0888FAB
:100730009B8D8C8D98131AC0E889F989808185FF7B
:1007400015C09FB7F894EE89FF896083E889F9891D
:1007500080818370806480839FBF81E090E0DF911F
:10076000CF911F910F91FF90EF900895F62E0B8D72
:1007700010E00F5F1F4F0F731127E02E8C8D8E112D
:100780000CC00FB607FCFACFE889F989808185FF94
:10079000F5CFCE010E946D03F1CFEB8DEC0FFD2F55
:1007A000F11DE35AFF4FF0829FB7F8940B8FEA894F
:1007B000FB8980818062CFCF0F931F93CF93DF930C
:1007C0008C01D0E0C0E0F801EC0FFD1F64916623BE
:1007D00041F084E991E00E948F03892B11F021966A
:1007E000F2CFCE01DF91CF911F910F910895CF935A
:1007F000DF93EC01888D8823B9F0AA89BB89E88949
:10080000F9898C9185FD03C0808186FD0DC00FB6EE
:1008100007FCF7CF8C9185FFF2CF808185FFEDCF6C
:10082000CE010E946D03E9CFDF91CF91089584E955
:1008300091E00E94F703E4E9F1E0A289B3898C9189
:100840008F7E8C93A289B3898C91877F8C93A289A8
:10085000B3898C918F778C93A289B3898C918F7D8A
:100860008C93828D818F0895833081F028F48130BC
:1008700099F08230A9F008958730A9F08830C9F046
:100880008430B1F4809180008F7D03C0809180001E
:100890008F7780938000089584B58F7784BD089505
:1008A00084B58F7DFBCF8091B0008F778093B000AF
:1008B00008958091B0008F7DF9CFCF93DF93282FDB
:1008C00030E0F901E255FF4F8491F901E656FF4F00
:1008D000D491F901EA57FF4FC491CC23A1F08111C3
:1008E0000E943404EC2FF0E0EE0FFF1FE458FF4F9E
:1008F000A591B491EC91ED2381E090E009F480E0C2
:10090000DF91CF91089580E090E0FACF1F93CF93CD
:10091000DF93282F30E0F901E255FF4F8491F90170
:10092000E656FF4FD491F901EA57FF4FC491CC230B
:10093000A9F0162F81110E943404EC2FF0E0EE0F85
:10094000FF1FEE58FF4FA591B4918FB7F894EC912B
:10095000111108C0D095DE23DC938FBFDF91CF91BA
:100960001F910895DE2BF8CFCF93DF9390E0FC0129
:10097000E656FF4F24918A579F4FFC0184918823AC
:10098000D1F090E0880F991FFC01E859FF4FA59125
:10099000B491FC01EE58FF4FC591D49161110EC086
:1009A0009FB7F8948C91E22FE0958E238C93288149
:1009B000E223E8839FBFDF91CF9108958FB7F8942A
:1009C000EC91E22BEC938FBFF6CF3FB7F894809178
:1009D0007F0190918001A0918101B091820126B5A3
:1009E000A89B05C02F3F19F00196A11DB11D3FBF67
:1009F000BA2FA92F982F8827BC01CD01620F711D36
:100A0000811D911D42E0660F771F881F991F4A952F
:100A1000D1F708958F929F92AF92BF92CF92DF92BB
:100A2000EF92FF924B015C010E94E5046B017C0197
:100A30000E94E5046C197D098E099F09683E734088
:100A400081059105A8F321E0821A9108A108B10857
:100A500088EEC80E83E0D81EE11CF11C81149104BD
:100A6000A104B10429F7FF90EF90DF90CF90BF90E1
:100A7000AF909F908F90089561E070E080E090E0EB
:100A80000E940A0561E081E10E94860461E070E055
:100A900080E090E00E940A0560E081E10C94860409
:100AA00061E070E080E090E00E940A0561E080E192
:100AB0000E94860461E070E080E090E00E940A05F8
:100AC00060E080E10C948604EF92FF920F931F93F5
:100AD000CF93DF93082FE62E60E080E10E9486042A
:100AE00060E082E10E94860460E088E00E94860463
:100AF0000E945005D0E0C0E010E0F12CC8010C2E9F
:100B000001C0880F0A94EAF761E087FF60E082E1A4
:100B10000E948604C7010C2E01C0880F0A94EAF7D0
:100B200061E087FF60E088E00E9486040E94500533
:100B30002196C830D10511F760E082E10E94860459
:100B400060E088E00E9486040E94500560E082E137
:100B50000E94860460E088E00E948604DF91CF91C5
:100B60001F910F91FF90EF900C945005AF92BF92A0
:100B7000CF92DF92EF92FF921F93CF93DF93E82EF5
:100B8000C62E60E080E10E94860460E082E10E945F
:100B9000860460E088E00E9486040E9450058DE093
:100BA0000E945D0410E8019709F010E0D0E0C0E079
:100BB000F12CD12C80E4A82EB12CC7010C2E01C041
:100BC000880F0A94EAF761E087FF60E082E10E9403
:100BD0008604C6010C2E01C0880F0A94EAF761E072
:100BE00087FF60E088E00E9486040E945005C730BD
:100BF000D10569F08DE00E945D04019741F4C501C3
:100C00000C2E02C0959587950A94E2F7182B219631
:100C1000C830D10591F660E082E10E94860460E070
:100C200088E00E9486040E94500560E082E10E94F4
:100C3000860460E088E00E9486040E945005812FAF
:100C4000DF91CF911F91FF90EF90DF90CF90BF90F9
:100C5000AF900895CF93DF93C82F61E082E10E94A7
:100C6000860460E088E00E94860460E080E10E94E3
:100C7000860480919101813029F060E0809100012B
:100C80000E94860460E08FE00E948604D0E060E06D
:100C900081E00E948604BE017595679575956795FC
:100CA000617082E00E94860460E083E00E94860416
:100CB00060E084E00E94860460E085E00E94860493
:100CC000BE0196E0759567959A95E1F786E00E94DA
:100CD000860460E087E00E94860461E08FE00E9465
:100CE000B40461E081E00E94B40461E082E00E940B
:100CF000B40461E083E00E94B40461E084E00E94F7
:100D0000B40461E085E00E94B40461E086E00E94E2
:100D1000B40461E087E00E94B4040E943C0560E0F6
:100D20008FE00E94860460E081E00E94860460E01B
:100D300082E00E94860460E083E00E94860460E016
:100D400084E00E94860460E085E00E94860460E002
:100D500086E00E94860460E087E00E94860460E0EE
:100D60008FE00E94B40460E081E00E94B40460E07F
:100D700082E00E94B40460E083E00E94B40460E07A
:100D800084E00E94B40460E085E00E94B40460E066
:100D900086E00E94B40460E087E0DF91CF910C947C
:100DA000B4048F929F92AF92BF92CF92DF92EF9254
:100DB000FF920F931F93CF93DF93EC0184E00E9487
:100DC0002A0660E08FE00E94860460E081E00E94D5
:100DD000860460E082E00E94860460E083E00E9476
:100DE000860460E084E00E94860460E085E00E9462
:100DF000860460E086E00E94860460E087E00E944E
:100E0000860460E08FE00E94B40460E081E00E940C
:100E1000B40460E082E00E94B40460E083E00E94D9
:100E2000B40460E084E00E94B40460E085E00E94C5
:100E3000B40460E086E00E94B40460E087E00E94B1
:100E4000B40480910001C130D10541F060E02297E7
:100E500009F461E00E94860460E004C061E00E9441
:100E6000860461E080E10E94860460E08BE00E94DD
:100E7000860461E070E080E090E00E940A0587E06F
:100E80000E945D04EC0186E00E945D04D695DC2F93
:100E9000CC27D795C79536E0880F991F3A95E1F78B
:100EA000C82B85E00E945D044C0184E00E945D0433
:100EB0005C0183E00E945D046C0182E00E945D049D
:100EC0007C0181E00E945D048C018FE00E945D0442
:100ED000D82F61E08BE00E94860445E0880C991CC5
:100EE0004A95E1F7CD2BC82954E0AA0CBB1C5A95B2
:100EF000E1F7CA2963E0CC0CDD1C6A95E1F7CC2947
:100F0000EE0CFF1CEE0CFF1CCE29C801880F991FA8
:100F10008C2BDF91CF911F910F91FF90EF90DF907D
:100F2000CF90BF90AF909F908F900895EF92FF92D7
:100F30000F931F93CF93DF93082F7B0180E40E94D0
:100F40002A0660E082E10E94860461E088E00E9457
:100F5000860460E080E10E94860410910001809187
:100F60009101813021F060E0812F0E94860461E0D0
:100F700070E080E090E00E940A05602F61708FE0D1
:100F80000E948604C02FD0E0BE0175956795617000
:100F900081E00E948604BE017595679575956795F9
:100FA000617082E00E948604BE0123E0759567951A
:100FB0002A95E1F7617083E00E948604BE0134E067
:100FC000759567953A95E1F7617084E00E94860413
:100FD000BE0145E0759567954A95E1F7617085E03A
:100FE0000E94860456E0D595C7955A95E1F76C2F77
:100FF000617086E00E948604602F661F6627661F68
:1010000087E00E94860461E08FE00E94B40461E002
:1010100081E00E94B40461E082E00E94B40461E0D7
:1010200083E00E94B40461E084E00E94B40461E0C3
:1010300085E00E94B40461E086E00E94B40461E0AF
:1010400087E00E94B4040E943C0560E08FE00E94AB
:10105000860460E081E00E94860460E082E00E94F5
:10106000860460E083E00E94860460E084E00E94E1
:10107000860460E085E00E94860460E086E00E94CD
:10108000860460E087E00E94860460E08FE00E94B2
:10109000B40460E081E00E94B40460E082E00E9459
:1010A000B40460E083E00E94B40460E084E00E9445
:1010B000B40460E085E00E94B40460E086E00E9431
:1010C000B40460E087E00E94B40481E0E816F10413
:1010D00031F082E0E816F10489F160E001C061E0DE
:1010E00080E10E94860460E0812F0E94860461E016
:1010F00070E080E090E00E940A0560E08AE00E94D3
:10110000860461E070E080E090E00E940A0561E002
:101110008AE00E9486048DE00E945D04892BD9F349
:1011200060E080E10E94860460E0812FDF91CF9132
:101130001F910F91FF90EF900C94860460E080E186
:101140000E94860461E0D0CF0F931F93CF93DF936B
:10115000082FC8E0D0E010E8802F812361E309F474
:1011600060E384E991E00E948F0316952197A1F72F
:10117000DF91CF911F910F91089520913502309109
:101180003602232B39F421E0FC018081882361F0B1
:1011900020E00AC0BC0180913102909132020E948D
:1011A000311821E0892BA1F7822F0895CF93DF9387
:1011B000EC01A881B981EB01E881F9811097F1F088
:1011C0003097B1F4EC018C819D81892BC9F08C9111
:1011D00090E00BC0DB0114968D919C91892B81F0DE
:1011E000808190E0919581959109DF91CF9108954B
:1011F000BF01CD01DF91CF910C943118309751F799
:1012000090E080E0F2CFFC0180819181009711F0A5
:101210000C94DA160895FC0101900020E9F731974B
:10122000AF01481B590BBC0184E991E00C94EF021B
:101230008DE191E00C940B09CF93DF930E94DC03C6
:10124000EC010E9418098C0F9D1FDF91CF9108952A
:101250008F929F92AF92BF920F931F93CF93DF9382
:10126000CDB7DEB7A1970FB6F894DEBF0FBECDBFE6
:1012700019A2423008F44AE08E010F5D1F4F842E00
:10128000912CB12CA12CA50194010E94C515E62F2B
:10129000B901CA01EA30F4F4E05DD801EE938D01A2
:1012A000232B242B252B79F790E080E0109719F061
:1012B000CD010E940B09A1960FB6F894DEBF0FBEB8
:1012C000CDBFDF91CF911F910F91BF90AF909F90B5
:1012D0008F900895E95CE1CFCF93DF930E940B09D3
:1012E000EC010E9418098C0F9D1FDF91CF9108958A
:1012F000FC018091310290913202009761F060818F
:1013000071816115710539F0448155810E94411840
:1013100021E0892B09F020E0822F0895CF93DF93FD
:10132000EC0180913102909132020097E9F06881DE
:10133000798161157105B1F0409133025091340209
:101340002C813D814217530768F00E943A188C8126
:101350009D8190933602809335021D821C82DF911D
:10136000CF9108950E94DA16888199819093320274
:10137000809331028A819B8190933402809333025F
:101380008C819D8190933602809335021982188258
:101390001B821A82E2CFCF93C82F682F62956F709D
:1013A00070E090E080E040E10E942809CF706C2F4F
:1013B00070E090E080E040E1CF910C9428090F9319
:1013C0001F93CF93DF93EC0188819981009759F0A7
:1013D0002A813B812617370730F081E0DF91CF91DA
:1013E0001F910F9108958B016F5F7F4F0E946317CC
:1013F000009759F0998388831B830A832C813D8150
:10140000232B59F7FC011082E8CF80E0E7CFEF9261
:10141000FF920F931F93CF93DF93EC017B018A011F
:10142000BA010E94DF0928813981811114C0211578
:10143000310519F0C9010E94DA16198218821D823D
:101440001C821B821A82CE01DF91CF911F910F91D6
:10145000FF90EF9008951D830C83B701C9010E948E
:101460003A18F1CFFC011182108213821282158288
:101470001482FB0101900020E9F73197AF01461B70
:10148000570B0C94070ACF92DF92EF92FF920F93C3
:101490001F93CF93DF93EC016B017A014617570737
:1014A00020F48D2D6A01E62EF82E6FE171E0CE0159
:1014B0000E94320A0091350210913602C016D10600
:1014C00040F5E016F10608F48701E0913102F09151
:1014D0003202E00FF11FF0801082609131027091B2
:1014E00032026C0D7D1D61157105E9F0FB01019063
:1014F0000020E9F73197AF01461B570BCE010E9440
:10150000070A8091310290913202080F191FF801E9
:10151000F082CE01DF91CF911F910F91FF90EF905C
:10152000DF90CF90089588819981009711F00E94F3
:10153000DA16198218821D821C821B821A82E1CF60
:10154000CF92DF92EF92FF920F931F93CF93DF938F
:10155000CDB7DEB7E6970FB6F894DEBF0FBECDBFAE
:10156000EDB6FEB60091310210913202011511055F
:1015700071F0F80181918F01882349F0082E000C49
:10158000990B0E942018F80131978083F2CF60E216
:1015900071E0CE0149960E94320ACE0149960E941E
:1015A000780910E0882309F442C064E271E0CE01BA
:1015B00043960E94320A44E050E063E070E0CE01BE
:1015C0000D960E94430ABE016D5E7F4FCE010D96BF
:1015D0000E94D60810E097FD22C066E271E0CE01BD
:1015E00007960E94320A44E050E063E070E0CE01CA
:1015F00001960E94430ABE01695F7F4FCE010196AA
:101600000E94D60811E0181619060CF410E0CE015D
:1016100001960E940309CE0107960E940309CE019C
:101620000D960E940309CE0143960E940309CE0144
:1016300049960E9403098AE0111156C068E271E0E0
:10164000CE0149960E94320ACE0149960E9478093D
:10165000882309F441C064E271E0CE0143960E9400
:10166000320A44E050E063E070E0CE010D960E9443
:10167000430ABE016D5E7F4FCE010D960E94D608D3
:1016800097FD22C06CE271E0CE0107960E94320AFB
:1016900044E050E063E070E0CE0101960E94430A0E
:1016A000BE01695F7F4FCE0101960E94D60811E00E
:1016B000181619060CF410E0CE0101960E940309D9
:1016C000CE0107960E940309CE010D960E940309E0
:1016D000CE0143960E940309CE0149960E94030958
:1016E000112309F45EC082E080938F01409135029E
:1016F0005091360263E070E0CE0101960E94430AE9
:10170000CE0101960E948E09CE0101960E94030926
:101710000091350210913602C80101962DB73EB7EF
:10172000281B390B0FB6F8943EBF0FBE2DBFEDB787
:10173000FEB731966F01892B29F00115110509F0CB
:1017400056C1108240918F014423B9F050E0BE0190
:101750006F5F7F4FC6010E94921460938B0170935C
:101760008C0180938D0190938E016F3F71058105EF
:10177000910519F014F010928F010FB6F894FEBE87
:101780000FBEEDBEE6960FB6F894DEBF0FBECDBF1E
:10179000DF91CF911F910F91FF90EF90DF90CF904D
:1017A00008956EE271E0CE01C1960E94320ACE0128
:1017B000C1960E947809882309F486C064E271E02A
:1017C000CE018B960E94320A43E050E062E070E066
:1017D000CE0185960E94430ABE01655D7F4FCE0112
:1017E00085960E94D60897FD1BC066E271E0CE0187
:1017F0004F960E94320A43E050E062E070E0CE0172
:1018000049960E94430ABE01615E7F4FCE01499610
:101810000E94D60801E0181619061CF011E044C019
:1018200000E068E471E0CE0143960E94320A43E092
:1018300050E062E070E0CE010D960E94430ABE01C6
:101840006D5E7F4FCE010D960E94D60897FD22C097
:1018500061E371E0CE0107960E94320A43E050E056
:1018600062E070E0CE0101960E94430ABE01695F0A
:101870007F4FCE0101960E94D60811E01816190676
:101880000CF410E0CE0101960E940309CE010796E8
:101890000E940309CE010D960E940309CE014396D2
:1018A0000E940309002341F0CE0149960E940309DA
:1018B000CE014F960E940309CE0185960E9403092E
:1018C000CE018B960E940309CE01C1960E940309A6
:1018D000112321F080E180938F011ACF64E271E03F
:1018E000CE018B960E94320A41E050E070E060E049
:1018F000CE0185960E94430ABE01655D7F4FCE01F1
:1019000085960E94D60897FD1BC066E271E0CE0165
:101910004F960E94320A41E050E070E060E0CE0154
:1019200049960E94430ABE01615E7F4FCE014996EF
:101930000E94D60801E0181619061CF011E044C0F8
:1019400000E068E471E0CE0143960E94320A41E073
:1019500050E070E060E0CE010D960E94430ABE01A7
:101960006D5E7F4FCE010D960E94D60897FD22C076
:1019700061E371E0CE0107960E94320A41E050E037
:1019800070E060E0CE0101960E94430ABE01695FEB
:101990007F4FCE0101960E94D60811E01816190655
:1019A0000CF410E0CE0101960E940309CE010796C7
:1019B0000E940309CE010D960E940309CE014396B1
:1019C0000E940309002341F0CE0149960E940309B9
:1019D000CE014F960E940309CE0185960E9403090D
:1019E000CE018B960E940309111174CF91CE6091A4
:1019F000310270913202A801CF010E944F18F60106
:101A0000E00FF11F9ECE1F920F920FB60F9211247E
:101A10002F933F934F935F936F937F938F939F93F6
:101A2000AF93BF93EF93FF9384E991E00E946D031E
:101A3000FF91EF91BF91AF919F918F917F916F91A6
:101A40005F914F913F912F910F900FBE0F901F907C
:101A500018951F920F920FB60F9211242F938F9308
:101A60009F93EF93FF93E091A401F091A5018081F2
:101A7000E091AA01F091AB0182FD1BC090818091A1
:101A8000AD018F5F8F732091AE01821741F0E0911D
:101A9000AD01F0E0EC56FE4F958F8093AD01FF91C4
:101AA000EF919F918F912F910F900FBE0F901F90EC
:101AB00018958081F4CF1F920F920FB60F921124C8
:101AC0002F933F938F939F93AF93BF938091830105
:101AD00090918401A0918501B091860130917E01A1
:101AE00023E0230F2D3758F50196A11DB11D20933A
:101AF0007E018093830190938401A0938501B0932C
:101B0000860180917F0190918001A0918101B09127
:101B100082010196A11DB11D80937F0190938001E8
:101B2000A0938101B0938201BF91AF919F918F915A
:101B30003F912F910F900FBE0F901F90189526E8A0
:101B4000230F0296A11DB11DD2CFE4E9F1E013826B
:101B5000128288EE93E0A0E0B0E084839583A683B0
:101B6000B7838FE091E09183808385EC90E0958747
:101B7000848784EC90E09787868780EC90E0918B57
:101B8000808B81EC90E0938B828B82EC90E0958B44
:101B9000848B86EC90E0978B868B118E128E138E41
:101BA000148E6FE171E081E392E00C94320ACF93DE
:101BB000DF9300D000D000D0CDB7DEB7789484B5E5
:101BC000826084BD84B5816084BD85B5826085BD39
:101BD00085B5816085BD80916E00816080936E00C7
:101BE00010928100809181008260809381008091B9
:101BF000810081608093810080918000816080936A
:101C000080008091B10084608093B1008091B00029
:101C100081608093B00080917A00846080937A0024
:101C200080917A00826080937A0080917A0081604E
:101C300080937A0080917A00806880937A00109275
:101C4000C1006AE170E081E392E00E94DF0960E098
:101C50008FE00E94860460E081E00E94860460E0DC
:101C600082E00E94860460E083E00E94860460E0D7
:101C700084E00E94860460E085E00E94860460E0C3
:101C800086E00E94860460E087E00E94860460E0AF
:101C90008FE00E94B40460E081E00E94B40460E040
:101CA00082E00E94B40460E083E00E94B40460E03B
:101CB00084E00E94B40460E085E00E94B40460E027
:101CC00086E00E94B40460E087E00E94B40461E012
:101CD0008CE00E94B40460E08DE00E94B40461E0F6
:101CE0008BE00E94B40461E08AE00E94B40461E0E9
:101CF00080E10E94B40461E088E00E94B40461E0E5
:101D000082E10E94B40461E0809101010E94B40468
:101D100061E08EE00E94B40461E0809100010E94C5
:101D2000B40461E081E10E94B40461E08EE00E94AD
:101D3000860460E08CE00E9486040E94C60262E392
:101D400070E080E090E00E940A0589EE90E00E9439
:101D50001C0982EC90E00E941C090E9418092BE3E8
:101D6000C22EDD24D39433E2A32EB12C43E0842E83
:101D7000912C01E010E083E6582E90E0692E90E06F
:101D8000792E8091920190919301892B09F098C04E
:101D900083E391E00E940B0980919101813009F465
:101DA00041C408F43AC4823009F43FC48FE195E09D
:101DB0000E941C098AEE94E00E941C098DEB94E0BD
:101DC0000E941C0980E994E00E941C0983E694E0CB
:101DD0000E941C098EE494E00E94DC0388E494E0F5
:101DE0000E94DC03809104010E94CB0980E494E00E
:101DF0000E94DC03809104010E94A4080E9418093B
:101E00008CE294E00E94DC0386E294E00E94DC0312
:101E1000809103010E94CB098EE194E00E94DC03D3
:101E2000809103010E94A4080E9418098AE094E0AE
:101E30000E94DC0384E094E00E94DC0380910201B4
:101E40000E94CB098CEF93E00E94DC038091020199
:101E50000E94A4080E94180981EF93E00E941C09C7
:101E600082ED93E00E941C0989EB93E00E941C091B
:101E700087E993E00E941C098DE593E00E941C090C
:101E80008BE293E00E941C098DEF92E00E941C09F6
:101E90008FEC92E00E941C098AE992E00E941C09E2
:101EA00088E792E00E941C0982E592E00E941C09EA
:101EB00080E392E00E941C09109393010093920129
:101EC0008091920190919301019751F48EE192E0FB
:101ED0000E941C0982E090E090939301809392010C
:101EE0008091920190919301039709F080C10E9423
:101EF000170462E370E080E090E00E940A0560E071
:101F00008FE00E94860460E081E00E94860460E029
:101F100082E00E94860460E083E00E94860460E024
:101F200084E00E94860460E085E00E94860460E010
:101F300086E00E94860460E087E00E94860460E0FC
:101F40008FE00E94B40460E081E00E94B40460E08D
:101F500082E00E94B40460E083E00E94B40460E088
:101F600084E00E94B40460E085E00E94B40460E074
:101F700086E00E94B40460E087E00E94B4042090F0
:101F8000010160E0822D0E94860460E082E10E94EF
:101F9000860460E088E00E94860460E080E10E94A0
:101FA00086043090000160E0832D0E94860460E08A
:101FB0008AE00E94860460E08BE00E948604F09034
:101FC000910192E0F91210C060E082E10E94860463
:101FD00060E088E00E94860461E08DE00E94B40425
:101FE00060E08DE00E94860461E08CE00E9486043F
:101FF000C6010197F1F760E08EE00E94860422E0BE
:10200000F21204C060E08DE00E94B404C5010197A3
:10201000F1F761E08BE00E94860461E08AE00E94B3
:10202000860461E070E080E090E00E940A0582E0B2
:10203000F812FEC26CE484E00E94B60568E680E017
:102040000E94B6056CE680E00E94B605482E6CE45E
:1020500084E00E94B6056AE780E00E94B6056EE75C
:1020600080E00E94B605E82E6CE484E00E94B6058C
:102070006AE680E00E94B6056EE680E00E94B60542
:10208000F82E60E08FE00E94860460E081E00E940C
:10209000860460E082E00E94860460E083E00E94A3
:1020A000860460E084E00E94860460E085E00E948F
:1020B000860460E086E00E94860460E087E00E947B
:1020C000860460E08FE00E94B40460E081E00E943A
:1020D000B40460E082E00E94B40460E083E00E9407
:1020E000B40460E084E00E94B40460E085E00E94F3
:1020F000B40460E086E00E94B40460E087E00E94DF
:10210000B40461E08EE00E94860461E070E080E04B
:1021100090E00E940A0560E08BE00E94860460E087
:102120008AE00E94860460E0822D0E94860460E0BE
:1021300082E10E94860460E088E00E94860460E0FC
:1021400080E10E94860460E0832D0E94860460E0A6
:102150008CE00E9486040E94C60262E370E080E088
:1021600090E00E940A050E9418098EE092E00E9409
:10217000DC0388E092E00E94DC03842D0E94CB09FE
:1021800080E092E00E94DC03842D0E94A4080E945B
:10219000180980EF91E00E94DC038AEE91E00E9432
:1021A000DC038E2D0E94CB0982EE91E00E94DC03BD
:1021B0008E2D0E94A4080E94180982ED91E00E94D1
:1021C000DC038CEC91E00E94DC038F2D0E94CB0994
:1021D00084EC91E00E94DC038F2D0E94A4080E94F1
:1021E00018090E941809109393010093920180919D
:1021F000920190919301049709F073C18091C000FE
:1022000080648093C00086EB91E00E941C0980915D
:10221000C00086FFFCCF0E94170462E370E080E0FC
:1022200090E00E940A0560E08FE00E94860460E072
:1022300081E00E94860460E082E00E94860460E003
:1022400083E00E94860460E084E00E94860460E0EF
:1022500085E00E94860460E086E00E94860460E0DB
:1022600087E00E94860460E08FE00E94B40460E092
:1022700081E00E94B40460E082E00E94B40460E067
:1022800083E00E94B40460E084E00E94B40460E053
:1022900085E00E94B40460E086E00E94B40460E03F
:1022A00087E00E94B40460E0809101010E948604EE
:1022B00060E082E10E94860460E088E00E9486047B
:1022C00060E080E10E94860460E0809100010E944D
:1022D000860460E08AE00E94860460E08BE00E9451
:1022E0008604F090910192E0F91210C060E082E162
:1022F0000E94860460E088E00E94860461E08DE030
:102300000E94B40460E08DE00E94860461E08CE0ED
:102310000E948604C6010197F1F760E08EE00E94FA
:10232000860422E0F21204C060E08DE00E94B40452
:10233000C5010197F1F761E08BE00E94860461E03E
:102340008AE00E94860461E070E080E090E00E94F4
:102350000A053090030140900401E090020182E000
:10236000F81275C16CE480E40E9464056CE2842D6F
:102370000E94640564E680E00E9464056CE680E0EB
:102380000E9464058DE00E945D04892BD9F36CE402
:1023900080E40E9464056CE2832D0E94640564E77A
:1023A00080E00E9464056CE780E00E9464058DE097
:1023B0000E945D04892BD9F36CE480E40E946405DB
:1023C0006CE28E2D0E94640566E680E00E94640542
:1023D0006EE680E00E9464058DE00E945D04892B1A
:1023E000D9F30E94C60262E370E080E090E00E94B0
:1023F0000A050E94180988EA91E00E941C090E94BF
:10240000180960E08FE00E94860460E081E00E948D
:10241000860460E082E00E94860460E083E00E941F
:10242000860460E084E00E94860460E085E00E940B
:10243000860460E086E00E94860460E087E00E94F7
:10244000860460E08FE00E94B40460E081E00E94B6
:10245000B40460E082E00E94B40460E083E00E9483
:10246000B40460E084E00E94B40460E085E00E946F
:10247000B40460E086E00E94B40460E087E00E945B
:10248000B40461E08EE00E94860461E070E080E0C8
:1024900090E00E940A0560E08BE00E94860460E004
:1024A0008AE00E94860460E0809101010E94860417
:1024B00060E082E10E94860460E088E00E94860479
:1024C00060E080E10E94860460E0809100010E944B
:1024D000860460E08CE00E948604909293018092D2
:1024E000920180919001882309F440C00E94A00AC3
:1024F0008CE291E00E94BD08882309F4B8C08CE901
:1025000091E00E941C0983E18093010189E080939E
:102510000001109291011093930100939201509247
:102520008F0180918F019FEF980F933108F08BC13D
:1025300085E091E00E94DC0380918B010E94CB0931
:102540008DEF90E00E94DC0380918B010E94A40833
:102550000E94180950E040E06FE171E081E392E0F1
:102560000E94070A1092900110928F0184E991E075
:102570000E944D03892B81F084E991E00E942B0396
:102580008A3009F08CC18FE191E00E94BD08811171
:1025900003C081E0809390012FB7F894809183016C
:1025A00090918401A0918501B09186012FBF893B54
:1025B0009B40A105B10528F12FB7F89480918301C4
:1025C00090918401A0918501B09186012FBF885B15
:1025D0009B40A109B1094091870150918801609108
:1025E000890170918A01481759076A077B0748F4E7
:1025F0008FE191E00E94BD08811103C081E08093CA
:1026000090016114710409F4BCCB0E945903882322
:1026100009F4B1CB0E940000AECB83E491E00E94AC
:102620006C09C4CB8AE491E0FACF85E591E0F7CF5D
:1026300090E080E00E94D106482E81E090E00E9468
:10264000D106E82E82E090E00E94D10619CD61E02B
:1026500070E0832D0E94960770E060E0842D0E9458
:10266000960762E070E08E2D0E949607BACE81E652
:1026700091E00E94BD08882371F08CE891E00E94EF
:102680001C0980E18093010182E18093000181E0D7
:102690008093910140CF83E591E00E94BD0888239B
:1026A00061F08BE791E00E941C0983E180930101B6
:1026B00089E08093000182E0EBCF83E691E00E9405
:1026C000BD08882391F08EE591E00E941C0992E6F6
:1026D0009093040189ED809303012FEF2093020171
:1026E00010929301109292011ACF85E691E00E9418
:1026F000BD08882361F087E491E00E941C098FEFF8
:10270000809304019EED909303012DEFE7CF67E6E0
:1027100071E0CE0101960E94320ACE0101960E941C
:102720007809F82ECE0101960E940309FF2031F1AD
:1027300083E391E00E94DC03409135025091360220
:1027400061E070E0CE0101960E94430ACE0101963D
:102750000E948E09CE0101960E9403090E94A00AE0
:1027600080918F01882309F471C080918B0180933F
:1027700004011093930100939201D3CE69E671E0B6
:10278000CE0101960E94320ACE0101960E9478097C
:10279000F82ECE0101960E940309FF2009F18FE176
:1027A00091E00E94DC03409135025091360261E0D5
:1027B00070E0CE0101960E94430ACE0101960E946C
:1027C0008E09CE0101960E9403090E94A00A809101
:1027D0008F018823D9F180918B0180930301C9CFA8
:1027E0006FE271E0CE0101960E94320ACE0101969D
:1027F0000E947809F82ECE0101960E940309FF205D
:1028000009F48FCE8BE091E00E94DC034091350209
:102810005091360261E070E0CE0101960E94430AB9
:10282000CE0101960E948E09CE0101960E940309F5
:102830000E94A00A80918F01882341F080918B0132
:102840008093020196CF833609F484CE8BE691E023
:102850000E94BD08882359F087EF90E00E941C0970
:1028600084E090E0909393018093920173CE8DE683
:1028700091E00E94BD08882349F082EF90E00E9419
:102880001C09909293018092920164CE8FE691E0B0
:102890000E946C0910929301109292015BCE8132DA
:1028A0000CF47ACEE0903502F090360299E1E91608
:1028B000F10408F071CE89831A822FEFE21AF20A2E
:1028C000B70181E392E00E94DF09882399F020910B
:1028D0003102309132028091350290913602BE0170
:1028E0006F5F7F4F820F931F0E943A18F09236025B
:1028F000E09235022FB7F894809183019091840182
:10290000A0918501B09186012FBF8093870190939C
:102910008801A0938901B0938A013ECE81E392E0C1
:102920000C940309B0E0A0E0E8E9F4E10C94F3159D
:102930005C016B017A016115710519F0FB0191834E
:102940008083E114F10451F0C7010297839730F0BE
:1029500040E030E020E090E072C05E01E5012196A9
:10296000F5011081812F90E00E94A915892BA9F70C
:102970001D3201F52196F501118101E0E114F10408
:1029800009F4DAC0F0E1EF16F10409F082C0103367
:1029900059F488818F7D883509F076C01981229697
:1029A0000260F0E1EF2EF12C812C912CA12C88E01B
:1029B000B82E8CC01B3221F4E5012296F50111815D
:1029C00000E0DCCFEAE0EE16F10409F4BBC0F0E170
:1029D000EF16F10409F06DC0E7CF78E0E72EF12C97
:1029E000812C912CA12C60E1B62E70C03FE9310FF3
:1029F0003A3128F439EA332E80C021E09AC0302FD2
:102A00003170C114D10431F0222309F12197F6016C
:102A1000D183C08327FF21C060E070E080E090E8B0
:102A2000311104C06FEF7FEF8FEF9FE722E230E0BC
:102A30003093380220933702462F372F282F642FE8
:102A4000732F822FCDB7DEB7E1E10C940F1601FF93
:102A500004C02297F601D183C083332341F09095BF
:102A60008095709561957F4F8F4F9F4FE5CF97FF72
:102A7000E3CF82E290E090933802809337026FEFC9
:102A80007FEF8FEF9FE7D8CF10E3E114F10409F453
:102A9000A4CF28E0E216F10409F4A2CF0CF092CF03
:102AA000812C912CA12CE0E4BE2E82E0E816F104EA
:102AB00069F060E070E080E090E897010F2C000C76
:102AC000440B550B0E94C51549015A0120E060E0F6
:102AD00070E0CB0127010F2C000C66087708FE017F
:102AE00050ED352E310E39E0331540F43FEB310F08
:102AF0003A3108F07BCF49EC342E310E3E141F04DE
:102B00000CF07DCF27FD15C086169706A806B906DE
:102B100078F0A30192010E94B515630D711D811D0E
:102B2000911D61307105810520E8920708F465CF99
:102B30002FEF21961081D3CF103309F42ACF2AE04A
:102B4000E22EF12C9CEC892E982CA82C9CE0B92E1E
:102B5000BDCF91110C94B215803219F08950855077
:102B6000C8F70895992788270895DB018F939F93CD
:102B70000E94E715BF91AF91A29F800D911DA39F69
:102B8000900DB29F900D11240895A1E21A2EAA1B58
:102B9000BB1BFD010DC0AA1FBB1FEE1FFF1FA2170D
:102BA000B307E407F50720F0A21BB30BE40BF50B0A
:102BB000661F771F881F991F1A9469F76095709593
:102BC000809590959B01AC01BD01CF0108950E94B5
:102BD0002916A59F900DB49F900DA49F800D911D67
:102BE000112408952F923F924F925F926F927F929D
:102BF0008F929F92AF92BF92CF92DF92EF92FF920D
:102C00000F931F93CF93DF93CDB7DEB7CA1BDB0BB8
:102C10000FB6F894DEBF0FBECDBF09942A8839885D
:102C200048885F846E847D848C849B84AA84B98464
:102C3000C884DF80EE80FD800C811B81AA81B98170
:102C4000CE0FD11D0FB6F894DEBF0FBECDBFED0184
:102C50000895A29FB001B39FC001A39F700D811D75
:102C60001124911DB29F700D811D1124911D089595
:102C7000EE0FFF1F0590F491E02D09940F931F9321
:102C8000CF93DF938230910510F482E090E0E091E1
:102C90003B02F0913C0230E020E0B0E0A0E0309751
:102CA00099F42115310509F44AC0281B390B243049
:102CB0003105D8F58A819B816115710589F1FB0188
:102CC00093838283FE0111C040815181028113816F
:102CD00048175907E0F04817590799F4109761F021
:102CE00012960C93129713961C933296CF01DF9194
:102CF000CF911F910F91089500933B0210933C02D6
:102D0000F4CF2115310551F04217530738F0A901CE
:102D1000DB019A01BD01DF01F801C1CFEF01F9CF5D
:102D200090933C0280933B02CDCFFE01E20FF31F54
:102D3000819391932250310939832883D7CF2091F1
:102D4000390230913A02232B41F42091070130914E
:102D5000080130933A022093390220910501309105
:102D600006012115310541F42DB73EB74091090107
:102D700050910A01241B350BE0913902F0913A027F
:102D8000E217F307A0F42E1B3F0B2817390778F042
:102D9000AC014E5F5F4F2417350748F04E0F5F1FA1
:102DA00050933A0240933902819391939FCFF0E080
:102DB000E0E09CCFCF93DF930097E9F0FC013297DE
:102DC00013821282A0913B02B0913C02ED0130E0EF
:102DD00020E01097A1F420813181820F931F209170
:102DE000390230913A022817390709F061C0F0938F
:102DF0003A02E0933902DF91CF910895EA01CE17AC
:102E0000DF07E8F54A815B819E0141155105B1F765
:102E1000E901FB83EA8349915991C40FD51FEC174F
:102E2000FD0761F4808191810296840F951FE9016D
:102E300099838883828193819B838A83F0E0E0E099
:102E400012968D919C9113970097B9F52D913C9115
:102E50001197CD010296820F931F20913902309174
:102E60003A022817390739F6309751F510923C028B
:102E700010923B02B0933A02A0933902BCCFD383A5
:102E8000C28340815181840F951FC817D90761F40F
:102E90004E5F5F4F88819981480F591F518340834E
:102EA0008A819B81938382832115310509F0B0CFFC
:102EB000F0933C02E0933B029ECFFD01DC01C0CFCA
:102EC00013821282D7CFB0E0A0E0E9E6F7E10C94DC
:102ED000F4158C01009751F4CB010E943E168C0131
:102EE000C801CDB7DEB7E0E10C941016FC01E60F87
:102EF000F71F9C0122503109E217F30708F49DC027
:102F0000D901CD91DC911197C617D70798F0C5303C
:102F1000D10530F3CE0104978617970708F3C61B37
:102F2000D70B2297C193D1936D937C93CF010E94CD
:102F3000DA16D6CF5B01AC1ABD0A4C018C0E9D1E71
:102F4000A0913B02B0913C02512C412CF12CE12C80
:102F5000109731F58091390290913A0288159905C0
:102F600009F05CC04616570608F058C0809105016C
:102F700090910601009741F48DB79EB740910901E9
:102F800050910A01841B950BE817F90708F055C00A
:102F9000F0933A02E0933902F90171836083A0CF84
:102FA0008D919C91119712966C90129713967C902C
:102FB0001397A815B90559F56C0142E0C40ED11C50
:102FC000CA14DB0420F1AC014A195B09DA0112963C
:102FD000159780F06282738251834083D9016D938B
:102FE0007C93E114F10471F0D7011396FC93EE93F6
:102FF000129776CF22968C0F9D1FF90191838083C3
:10300000F301EFCFF0933C02E0933B0269CF481607
:10301000590608F42C017D01D3019ACFCB010E94FF
:103020003E167C01009749F0AE01B8010E942818B5
:10303000C8010E94DA16870153CF10E000E050CF9C
:103040009111089581568A5108F480528558089547
:10305000FB01DC0102C001900D9241505040D8F7B5
:103060000895FB01DC018D91019080190110D9F3C5
:10307000990B0895FB01DC0101900D920020E1F70E
:103080000895FB01DC014150504030F08D910190DA
:10309000801919F40020B9F7881B990B0895FB01DA
:1030A000DC014150504048F001900D920020C9F7DA
:1030B00001C01D9241505040E0F7089512E0CBE965
:1030C000D2E004C0FE010E9438162196CC39D10707
:0630D000C9F7F894FFCFE0
:1030D6000913FFD96200003D028000000000008F46
:1030E60003EF021C03F7034D032B033F030D0A00F6
:1030F6004E554D003000390042494E0031003058DF
:1031060000460053656C6563746564206D6F646585
:103116003A200041544D45474100415474696E7947
:103126003233313300415474696E792F4856535007
:10313600003200420055004C00480057005200493A
:0E3146006E76616C696420696E7075740000AD
:00000001FF
